{
  "abi": [
    {
      "inputs": [
        {
          "internalType": "contract MiniMeToken",
          "name": "_token",
          "type": "address"
        },
        {
          "internalType": "uint256",
          "name": "_votingLength",
          "type": "uint256"
        },
        {
          "internalType": "uint256",
          "name": "_votingVerificationLength",
          "type": "uint256"
        },
        {
          "internalType": "uint256",
          "name": "_timeBetweenVoting",
          "type": "uint256"
        }
      ],
      "stateMutability": "nonpayable",
      "type": "constructor"
    },
    {
      "inputs": [
        {
          "internalType": "uint256",
          "name": "ID",
          "type": "uint256"
        }
      ],
      "name": "InvalidRoomID",
      "type": "error"
    },
    {
      "inputs": [
        {
          "internalType": "uint256",
          "name": "ID",
          "type": "uint256"
        }
      ],
      "name": "VotingRoomDoesntExist",
      "type": "error"
    },
    {
      "anonymous": false,
      "inputs": [
        {
          "indexed": false,
          "internalType": "uint256",
          "name": "roomId",
          "type": "uint256"
        },
        {
          "indexed": false,
          "internalType": "address",
          "name": "voter",
          "type": "address"
        }
      ],
      "name": "AlreadyVoted",
      "type": "event"
    },
    {
      "anonymous": false,
      "inputs": [
        {
          "indexed": false,
          "internalType": "uint256",
          "name": "roomId",
          "type": "uint256"
        },
        {
          "indexed": false,
          "internalType": "address",
          "name": "voter",
          "type": "address"
        }
      ],
      "name": "InvalidSignature",
      "type": "event"
    },
    {
      "anonymous": false,
      "inputs": [
        {
          "indexed": false,
          "internalType": "uint256",
          "name": "roomId",
          "type": "uint256"
        },
        {
          "indexed": false,
          "internalType": "address",
          "name": "voter",
          "type": "address"
        }
      ],
      "name": "NotEnoughToken",
      "type": "event"
    },
    {
      "anonymous": false,
      "inputs": [
        {
          "indexed": true,
          "internalType": "address",
          "name": "previousOwner",
          "type": "address"
        },
        {
          "indexed": true,
          "internalType": "address",
          "name": "newOwner",
          "type": "address"
        }
      ],
      "name": "OwnershipTransferStarted",
      "type": "event"
    },
    {
      "anonymous": false,
      "inputs": [
        {
          "indexed": true,
          "internalType": "address",
          "name": "previousOwner",
          "type": "address"
        },
        {
          "indexed": true,
          "internalType": "address",
          "name": "newOwner",
          "type": "address"
        }
      ],
      "name": "OwnershipTransferred",
      "type": "event"
    },
    {
      "anonymous": false,
      "inputs": [
        {
          "indexed": false,
          "internalType": "uint256",
          "name": "roomId",
          "type": "uint256"
        },
        {
          "indexed": false,
          "internalType": "address",
          "name": "voter",
          "type": "address"
        }
      ],
      "name": "VoteCast",
      "type": "event"
    },
    {
      "anonymous": false,
      "inputs": [
        {
          "indexed": false,
          "internalType": "uint256",
          "name": "roomId",
          "type": "uint256"
        },
        {
          "indexed": false,
          "internalType": "bytes",
          "name": "publicKey",
          "type": "bytes"
        },
        {
          "indexed": false,
          "internalType": "bool",
          "name": "passed",
          "type": "bool"
        },
        {
          "indexed": false,
          "internalType": "enum VotingContract.VoteType",
          "name": "voteType",
          "type": "uint8"
        }
      ],
      "name": "VotingRoomFinalized",
      "type": "event"
    },
    {
      "anonymous": false,
      "inputs": [
        {
          "indexed": false,
          "internalType": "uint256",
          "name": "roomId",
          "type": "uint256"
        },
        {
          "indexed": false,
          "internalType": "bytes",
          "name": "publicKey",
          "type": "bytes"
        }
      ],
      "name": "VotingRoomStarted",
      "type": "event"
    },
    {
      "anonymous": false,
      "inputs": [
        {
          "indexed": false,
          "internalType": "uint256",
          "name": "roomId",
          "type": "uint256"
        },
        {
          "indexed": false,
          "internalType": "bytes",
          "name": "publicKey",
          "type": "bytes"
        }
      ],
      "name": "VotingRoomVerificationStarted",
      "type": "event"
    },
    {
      "inputs": [],
      "name": "VOTE_TYPEHASH",
      "outputs": [
        {
          "internalType": "bytes32",
          "name": "",
          "type": "bytes32"
        }
      ],
      "stateMutability": "view",
      "type": "function"
    },
    {
      "inputs": [],
      "name": "acceptOwnership",
      "outputs": [],
      "stateMutability": "nonpayable",
      "type": "function"
    },
    {
      "inputs": [
        {
          "internalType": "bytes",
          "name": "",
          "type": "bytes"
        }
      ],
      "name": "activeRoomIDByCommunityID",
      "outputs": [
        {
          "internalType": "uint256",
          "name": "",
          "type": "uint256"
        }
      ],
      "stateMutability": "view",
      "type": "function"
    },
    {
      "inputs": [
        {
          "components": [
            {
              "internalType": "address",
              "name": "voter",
              "type": "address"
            },
            {
              "internalType": "uint256",
              "name": "roomIdAndType",
              "type": "uint256"
            },
            {
              "internalType": "uint256",
              "name": "sntAmount",
              "type": "uint256"
            },
            {
              "internalType": "uint256",
              "name": "timestamp",
              "type": "uint256"
            },
            {
              "internalType": "bytes32",
              "name": "r",
              "type": "bytes32"
            },
            {
              "internalType": "bytes32",
              "name": "vs",
              "type": "bytes32"
            }
          ],
          "internalType": "struct VotingContract.SignedVote[]",
          "name": "votes",
          "type": "tuple[]"
        }
      ],
      "name": "castVotes",
      "outputs": [],
      "stateMutability": "nonpayable",
      "type": "function"
    },
    {
      "inputs": [],
      "name": "directory",
      "outputs": [
        {
          "internalType": "contract Directory",
          "name": "",
          "type": "address"
        }
      ],
      "stateMutability": "view",
      "type": "function"
    },
    {
      "inputs": [
        {
          "internalType": "uint256",
          "name": "roomId",
          "type": "uint256"
        },
        {
          "internalType": "uint32",
          "name": "limit",
          "type": "uint32"
        }
      ],
      "name": "finalizeVotingRoom",
      "outputs": [],
      "stateMutability": "nonpayable",
      "type": "function"
    },
    {
      "inputs": [
        {
          "internalType": "bytes",
          "name": "publicKey",
          "type": "bytes"
        }
      ],
      "name": "getActiveVotingRoom",
      "outputs": [
        {
          "components": [
            {
              "internalType": "uint256",
              "name": "startBlock",
              "type": "uint256"
            },
            {
              "internalType": "uint256",
              "name": "startAt",
              "type": "uint256"
            },
            {
              "internalType": "uint256",
              "name": "verificationStartAt",
              "type": "uint256"
            },
            {
              "internalType": "uint256",
              "name": "endAt",
              "type": "uint256"
            },
            {
              "internalType": "enum VotingContract.VoteType",
              "name": "voteType",
              "type": "uint8"
            },
            {
              "internalType": "bool",
              "name": "finalized",
              "type": "bool"
            },
            {
              "internalType": "bytes",
              "name": "community",
              "type": "bytes"
            },
            {
              "internalType": "uint256",
              "name": "totalVotesFor",
              "type": "uint256"
            },
            {
              "internalType": "uint256",
              "name": "totalVotesAgainst",
              "type": "uint256"
            },
            {
              "internalType": "uint256",
              "name": "roomNumber",
              "type": "uint256"
            },
            {
              "internalType": "uint256",
              "name": "endBlock",
              "type": "uint256"
            },
            {
              "internalType": "uint32",
              "name": "evaluatingPos",
              "type": "uint32"
            },
            {
              "internalType": "bool",
              "name": "evaluated",
              "type": "bool"
            }
          ],
          "internalType": "struct VotingContract.VotingRoom",
          "name": "",
          "type": "tuple"
        }
      ],
      "stateMutability": "view",
      "type": "function"
    },
    {
      "inputs": [],
      "name": "getActiveVotingRooms",
      "outputs": [
        {
          "internalType": "uint256[]",
          "name": "",
          "type": "uint256[]"
        }
      ],
      "stateMutability": "view",
      "type": "function"
    },
    {
      "inputs": [
        {
          "internalType": "bytes",
          "name": "publicKey",
          "type": "bytes"
        }
      ],
      "name": "getVotingHistory",
      "outputs": [
        {
          "components": [
            {
              "internalType": "uint256",
              "name": "startBlock",
              "type": "uint256"
            },
            {
              "internalType": "uint256",
              "name": "startAt",
              "type": "uint256"
            },
            {
              "internalType": "uint256",
              "name": "verificationStartAt",
              "type": "uint256"
            },
            {
              "internalType": "uint256",
              "name": "endAt",
              "type": "uint256"
            },
            {
              "internalType": "enum VotingContract.VoteType",
              "name": "voteType",
              "type": "uint8"
            },
            {
              "internalType": "bool",
              "name": "finalized",
              "type": "bool"
            },
            {
              "internalType": "bytes",
              "name": "community",
              "type": "bytes"
            },
            {
              "internalType": "uint256",
              "name": "totalVotesFor",
              "type": "uint256"
            },
            {
              "internalType": "uint256",
              "name": "totalVotesAgainst",
              "type": "uint256"
            },
            {
              "internalType": "uint256",
              "name": "roomNumber",
              "type": "uint256"
            },
            {
              "internalType": "uint256",
              "name": "endBlock",
              "type": "uint256"
            },
            {
              "internalType": "uint32",
              "name": "evaluatingPos",
              "type": "uint32"
            },
            {
              "internalType": "bool",
              "name": "evaluated",
              "type": "bool"
            }
          ],
          "internalType": "struct VotingContract.VotingRoom[]",
          "name": "returnVotingRooms",
          "type": "tuple[]"
        }
      ],
      "stateMutability": "view",
      "type": "function"
    },
    {
      "inputs": [
        {
          "internalType": "enum VotingContract.VoteType",
          "name": "voteType",
          "type": "uint8"
        },
        {
          "internalType": "bytes",
          "name": "publicKey",
          "type": "bytes"
        },
        {
          "internalType": "uint256",
          "name": "voteAmount",
          "type": "uint256"
        }
      ],
      "name": "initializeVotingRoom",
      "outputs": [],
      "stateMutability": "nonpayable",
      "type": "function"
    },
    {
      "inputs": [
        {
          "internalType": "uint256",
          "name": "roomID",
          "type": "uint256"
        }
      ],
      "name": "listRoomVoters",
      "outputs": [
        {
          "internalType": "address[]",
          "name": "roomVoters",
          "type": "address[]"
        }
      ],
      "stateMutability": "view",
      "type": "function"
    },
    {
      "inputs": [],
      "name": "owner",
      "outputs": [
        {
          "internalType": "address",
          "name": "",
          "type": "address"
        }
      ],
      "stateMutability": "view",
      "type": "function"
    },
    {
      "inputs": [],
      "name": "pendingOwner",
      "outputs": [
        {
          "internalType": "address",
          "name": "",
          "type": "address"
        }
      ],
      "stateMutability": "view",
      "type": "function"
    },
    {
      "inputs": [],
      "name": "renounceOwnership",
      "outputs": [],
      "stateMutability": "nonpayable",
      "type": "function"
    },
    {
      "inputs": [
        {
          "internalType": "contract Directory",
          "name": "_address",
          "type": "address"
        }
      ],
      "name": "setDirectory",
      "outputs": [],
      "stateMutability": "nonpayable",
      "type": "function"
    },
    {
      "inputs": [],
      "name": "timeBetweenVoting",
      "outputs": [
        {
          "internalType": "uint256",
          "name": "",
          "type": "uint256"
        }
      ],
      "stateMutability": "view",
      "type": "function"
    },
    {
      "inputs": [],
      "name": "token",
      "outputs": [
        {
          "internalType": "contract MiniMeToken",
          "name": "",
          "type": "address"
        }
      ],
      "stateMutability": "view",
      "type": "function"
    },
    {
      "inputs": [
        {
          "internalType": "address",
          "name": "newOwner",
          "type": "address"
        }
      ],
      "name": "transferOwnership",
      "outputs": [],
      "stateMutability": "nonpayable",
      "type": "function"
    },
    {
      "inputs": [],
      "name": "votingLength",
      "outputs": [
        {
          "internalType": "uint256",
          "name": "",
          "type": "uint256"
        }
      ],
      "stateMutability": "view",
      "type": "function"
    },
    {
      "inputs": [
        {
          "internalType": "uint256",
          "name": "",
          "type": "uint256"
        }
      ],
      "name": "votingRooms",
      "outputs": [
        {
          "internalType": "uint256",
          "name": "startBlock",
          "type": "uint256"
        },
        {
          "internalType": "uint256",
          "name": "startAt",
          "type": "uint256"
        },
        {
          "internalType": "uint256",
          "name": "verificationStartAt",
          "type": "uint256"
        },
        {
          "internalType": "uint256",
          "name": "endAt",
          "type": "uint256"
        },
        {
          "internalType": "enum VotingContract.VoteType",
          "name": "voteType",
          "type": "uint8"
        },
        {
          "internalType": "bool",
          "name": "finalized",
          "type": "bool"
        },
        {
          "internalType": "bytes",
          "name": "community",
          "type": "bytes"
        },
        {
          "internalType": "uint256",
          "name": "totalVotesFor",
          "type": "uint256"
        },
        {
          "internalType": "uint256",
          "name": "totalVotesAgainst",
          "type": "uint256"
        },
        {
          "internalType": "uint256",
          "name": "roomNumber",
          "type": "uint256"
        },
        {
          "internalType": "uint256",
          "name": "endBlock",
          "type": "uint256"
        },
        {
          "internalType": "uint32",
          "name": "evaluatingPos",
          "type": "uint32"
        },
        {
          "internalType": "bool",
          "name": "evaluated",
          "type": "bool"
        }
      ],
      "stateMutability": "view",
      "type": "function"
    },
    {
      "inputs": [],
      "name": "votingVerificationLength",
      "outputs": [
        {
          "internalType": "uint256",
          "name": "",
          "type": "uint256"
        }
      ],
      "stateMutability": "view",
      "type": "function"
    }
  ],
  "bytecode": {
    "object": "0x60806040523480156200001157600080fd5b5060405162003601380380620036018339810160408190526200003491620001e5565b6200003f33620000d9565b600380546001600160a01b0319166001600160a01b0386161790556004839055600582905560068190556040805160c081018252600f608082019081526e159bdd1a5b99c810dbdb9d1c9858dd608a1b60a083015281528151808301835260018152603160f81b6020808301919091528201524691810191909152306060820152620000cb90620000f7565b600e55506200023292505050565b600180546001600160a01b0319169055620000f48162000195565b50565b60007f8b73c3c69bb8fe3d512ecc4cf759cc79239f7b179b0ffacaa9a75d522b39400f82600001518051906020012083602001518051906020012084604001518560600151604051602001620001789594939291909485526020850193909352604084019190915260608301526001600160a01b0316608082015260a00190565b604051602081830303815290604052805190602001209050919050565b600080546001600160a01b038381166001600160a01b0319831681178455604051919092169283917f8be0079c531659141344cd1fd0a4f28419497f9722a3daafe3b4186f6b6457e09190a35050565b60008060008060808587031215620001fc57600080fd5b84516001600160a01b03811681146200021457600080fd5b60208601516040870151606090970151919890975090945092505050565b6133bf80620002426000396000f3fe608060405234801561001057600080fd5b50600436106101775760003560e01c80638da5cb5b116100d8578063daf1612b1161008c578063f6a54ac611610066578063f6a54ac614610357578063fc0c546a14610382578063ff9bd048146103a257600080fd5b8063daf1612b14610306578063e30c397814610326578063f2fde38b1461034457600080fd5b8063c1cde92c116100bd578063c1cde92c146102be578063c41c2f24146102d3578063da6d4a3d146102f357600080fd5b80638da5cb5b1461026c578063a68f1449146102ab57600080fd5b8063715018a61161012f57806379ba50971161011457806379ba5097146102345780637ed1689c1461023c578063865229731461024557600080fd5b8063715018a614610200578063730d01081461020857600080fd5b806354b6ec371161016057806354b6ec37146101ad5780635dacd0a0146101cd5780636e91818a146101ed57600080fd5b80630a64522f1461017c5780632111efc714610198575b600080fd5b61018560045481565b6040519081526020015b60405180910390f35b6101ab6101a63660046128e6565b6103ab565b005b6101c06101bb3660046129a4565b610585565b60405161018f9190612b50565b6101e06101db3660046129a4565b610719565b60405161018f9190612b6a565b6101ab6101fb366004612c0c565b610994565b6101ab6109e3565b61021b610216366004612c29565b6109f7565b60405161018f9d9c9b9a99989796959493929190612c42565b6101ab610b09565b61018560065481565b6101857fc8dfdde54cc98cd88a1a27e5243a7be688ac8c14d9008cb1cb7667059106044781565b60005473ffffffffffffffffffffffffffffffffffffffff165b60405173ffffffffffffffffffffffffffffffffffffffff909116815260200161018f565b6101ab6102b9366004612cc8565b610ba9565b6102c6610d94565b60405161018f9190612d01565b6002546102869073ffffffffffffffffffffffffffffffffffffffff1681565b6101ab610301366004612d45565b610ed8565b610319610314366004612c29565b611712565b60405161018f9190612da5565b60015473ffffffffffffffffffffffffffffffffffffffff16610286565b6101ab610352366004612c0c565b61181c565b610185610365366004612e22565b805160208183018101805160088252928201919093012091525481565b6003546102869073ffffffffffffffffffffffffffffffffffffffff1681565b61018560055481565b6000805b828110156104c35760006103d98585848181106103ce576103ce612ed3565b905060c002016118cc565b905080156104b057600060018686858181106103f7576103f7612ed3565b602060c09091029290920182013590921c6000818152600a909252604082205490935063ffffffff169003905061046b57610433600185612f31565b600b80546001810182556000919091527f0175b7a638427703f0dbe7bb9bbf987a2551717b34e79f33b5b1008d1fa01db90182905593505b6000818152600a6020526040812080546001929061049090849063ffffffff16612f4c565b92506101000a81548163ffffffff021916908363ffffffff160217905550505b50806104bb81612f69565b9150506103af565b5060005b8161ffff168161ffff161015610573576000600b8261ffff16815481106104f0576104f0612ed3565b90600052602060002001549050600061050882611d83565b6000838152600a602052604090205490915061052b90829063ffffffff16611e36565b50506000908152600a6020526040902080547fffffffffffffffffffffffffffffffffffffffffffffffffffffffff000000001690558061056b81612fa1565b9150506104c7565b50610580600b600061282c565b505050565b61058d61284a565b6105b6600884846040516105a2929190612fc2565b908152602001604051809103902054611d83565b604080516101a081018252825481526001808401546020830152600284015492820192909252600383015460608201526004830154909291608084019160ff1690811115610606576106066129e6565b6001811115610617576106176129e6565b81526004820154610100900460ff161515602082015260058201805460409092019161064290612fd2565b80601f016020809104026020016040519081016040528092919081815260200182805461066e90612fd2565b80156106bb5780601f10610690576101008083540402835291602001916106bb565b820191906000526020600020905b81548152906001019060200180831161069e57829003601f168201915b505050918352505060068201546020820152600782015460408201526008820154606082015260098201546080820152600a9091015463ffffffff811660a0830152640100000000900460ff16151560c09091015290505b92915050565b60606009838360405161072d929190612fc2565b9081526040519081900360200190205467ffffffffffffffff81111561075557610755612df3565b60405190808252806020026020018201604052801561078e57816020015b61077b61284a565b8152602001906001900390816107735790505b50905060005b600984846040516107a6929190612fc2565b9081526040519081900360200190205481101561098d57610801600985856040516107d2929190612fc2565b908152602001604051809103902082815481106107f1576107f1612ed3565b9060005260206000200154611d83565b604080516101a081018252825481526001808401546020830152600284015492820192909252600383015460608201526004830154909291608084019160ff1690811115610851576108516129e6565b6001811115610862576108626129e6565b81526004820154610100900460ff161515602082015260058201805460409092019161088d90612fd2565b80601f01602080910402602001604051908101604052809291908181526020018280546108b990612fd2565b80156109065780601f106108db57610100808354040283529160200191610906565b820191906000526020600020905b8154815290600101906020018083116108e957829003601f168201915b505050918352505060068201546020820152600782015460408201526008820154606082015260098201546080820152600a9091015463ffffffff811660a0830152640100000000900460ff16151560c090910152825183908390811061096f5761096f612ed3565b6020026020010181905250808061098590612f69565b915050610794565b5092915050565b61099c612187565b600280547fffffffffffffffffffffffff00000000000000000000000000000000000000001673ffffffffffffffffffffffffffffffffffffffff92909216919091179055565b6109eb612187565b6109f560006121ee565b565b60078181548110610a0757600080fd5b60009182526020909120600b909102018054600182015460028301546003840154600485015460058601805495975093959294919360ff808316946101009093041692610a5390612fd2565b80601f0160208091040260200160405190810160405280929190818152602001828054610a7f90612fd2565b8015610acc5780601f10610aa157610100808354040283529160200191610acc565b820191906000526020600020905b815481529060010190602001808311610aaf57829003601f168201915b5050506006840154600785015460088601546009870154600a9097015495969295919450925063ffffffff81169060ff640100000000909104168d565b600154339073ffffffffffffffffffffffffffffffffffffffff168114610b9d5760405162461bcd60e51b815260206004820152602960248201527f4f776e61626c6532537465703a2063616c6c6572206973206e6f74207468652060448201527f6e6577206f776e6572000000000000000000000000000000000000000000000060648201526084015b60405180910390fd5b610ba6816121ee565b50565b6000610bb483611d83565b6004810154909150610100900460ff16610cb55742816003015410610c1b5760405162461bcd60e51b815260206004820152601260248201527f766f7465207374696c6c206f6e676f696e6700000000000000000000000000006044820152606401610b94565b6004810180547fffffffffffffffffffffffffffffffffffffffffffffffffffffffffffff00ff16610100179055426003820155436009820155604051600090600890610c6c90600585019061301f565b90815260405190819003602001902055600a810180547fffffffffffffffffffffffffffffffffffffffffffffffffffffff000000000016905560006006820181905560078201555b600a810154640100000000900460ff1615610d125760405162461bcd60e51b815260206004820152601660248201527f766f746520616c72656164792066696e616c697a6564000000000000000000006044820152606401610b94565b6000610d1e8284611e36565b600a830154909150640100000000900460ff1615610d8e578015610d4557610d458261221f565b60048201546040517f2ee1d50dd7d7f4ca1cd35dba9bde18b024b24f448a26c1c8846fe7b8bb450d1d91610d859187916005870191869160ff169061314e565b60405180910390a15b50505050565b60075460609060009067ffffffffffffffff811115610db557610db5612df3565b604051908082528060200260200182016040528015610dde578160200160208202803683370190505b50600754909150610dee90612326565b6000805b600754811015610ed05760078181548110610e0f57610e0f612ed3565b90600052602060002090600b020160040160019054906101000a900460ff161580610e69575060078181548110610e4857610e48612ed3565b90600052602060002090600b0201600a0160049054906101000a900460ff16155b15610ebe5760078181548110610e8157610e81612ed3565b90600052602060002090600b020160080154838381518110610ea557610ea5612ed3565b602090810291909101015281610eba81612f69565b9250505b80610ec881612f69565b915050610df2565b508152919050565b60088383604051610eea929190612fc2565b908152602001604051809103902054600014610f485760405162461bcd60e51b815260206004820152601460248201527f766f746520616c7265616479206f6e676f696e670000000000000000000000006044820152606401610b94565b6000846001811115610f5c57610f5c6129e6565b03611046576002546040517fb3dbb52a00000000000000000000000000000000000000000000000000000000815273ffffffffffffffffffffffffffffffffffffffff9091169063b3dbb52a90610fb990869086906004016131b2565b602060405180830381865afa158015610fd6573d6000803e3d6000fd5b505050506040513d601f19601f82011682018060405250810190610ffa91906131ce565b6110465760405162461bcd60e51b815260206004820152601a60248201527f436f6d6d756e697479206e6f7420696e206469726563746f72790000000000006044820152606401610b94565b600184600181111561105a5761105a6129e6565b03611145576002546040517fb3dbb52a00000000000000000000000000000000000000000000000000000000815273ffffffffffffffffffffffffffffffffffffffff9091169063b3dbb52a906110b790869086906004016131b2565b602060405180830381865afa1580156110d4573d6000803e3d6000fd5b505050506040513d601f19601f820116820180604052508101906110f891906131ce565b156111455760405162461bcd60e51b815260206004820152601e60248201527f436f6d6d756e69747920616c726561647920696e206469726563746f727900006044820152606401610b94565b600060098484604051611159929190612fc2565b908152604051908190036020019020549050801561122557600060098585604051611185929190612fc2565b90815260405190819003602001902061119f6001846131f0565b815481106111af576111af612ed3565b906000526020600020015490506006546111c882611d83565b600301546111d690426131f0565b116112235760405162461bcd60e51b815260206004820181905260248201527f436f6d6d756e6974792077617320696e206120766f746520726563656e746c796044820152606401610b94565b505b6003546040517f70a08231000000000000000000000000000000000000000000000000000000008152336004820152839173ffffffffffffffffffffffffffffffffffffffff16906370a0823190602401602060405180830381865afa158015611293573d6000803e3d6000fd5b505050506040513d601f19601f820116820180604052508101906112b79190613203565b10156113055760405162461bcd60e51b815260206004820152601060248201527f6e6f7420656e6f75676820746f6b656e000000000000000000000000000000006044820152606401610b94565b60075460009061131690600161321c565b9050806008868660405161132b929190612fc2565b9081526020016040518091039020819055506009858560405161134f929190612fc2565b90815260408051602092819003830181208054600180820183556000928352858320909101869055858252600c85528382206060840185523384528584018281529484018990528054808301825590835294909120825160029095020180547fffffffffffffffffffffffff0000000000000000000000000000000000000000811673ffffffffffffffffffffffffffffffffffffffff909616958617825593519294909384927fffffffffffffffffffffff0000000000000000000000000000000000000000009091169091179074010000000000000000000000000000000000000000908490811115611446576114466129e6565b02179055506040918201516001918201556000838152600d602090815283822033835281529083902080547fffffffffffffffffffffffffffffffffffffffffffffffffffffffffffffff001690921790915581516101a081018352438152429181018290526004546007939192918301916114c2919061321c565b8152602001600554600454426114d8919061321c565b6114e2919061321c565b81526020018860018111156114f9576114f96129e6565b815260200160001515815260200187878080601f0160208091040260200160405190810160405280939291908181526020018383808284376000920182905250938552505050602080830182905260408084018390526060808501889052608080860185905260a0860185905260c0909501849052865460018181018955978552938390208651600b909502019384559185015183870155840151600283015583015160038201559082015160048201805493949293919290917fffffffffffffffffffffffffffffffffffffffffffffffffffffffffffffff00169083818111156115e7576115e76129e6565b021790555060a0820151600482018054911515610100027fffffffffffffffffffffffffffffffffffffffffffffffffffffffffffff00ff90921691909117905560c0820151600582019061163c908261327d565b5060e08201516006820155610100820151600782015561012082015160088201556101408201516009820155610160820151600a9091018054610180909301511515640100000000027fffffffffffffffffffffffffffffffffffffffffffffffffffffff000000000090931663ffffffff909216919091179190911790556116ce6116c782611d83565b6001611e36565b507f56385c0d76ffcefeb38cb9226cb877000037647d09069d15e94ac4b29ec4358781868660405161170293929190613379565b60405180910390a1505050505050565b6000818152600c602052604090205460609067ffffffffffffffff81111561173c5761173c612df3565b604051908082528060200260200182016040528015611765578160200160208202803683370190505b50905060005b6000838152600c6020526040902054811015611816576000838152600c602052604090208054829081106117a1576117a1612ed3565b6000918252602090912060029091020154825173ffffffffffffffffffffffffffffffffffffffff909116908390839081106117df576117df612ed3565b73ffffffffffffffffffffffffffffffffffffffff909216602092830291909101909101528061180e81612f69565b91505061176b565b50919050565b611824612187565b6001805473ffffffffffffffffffffffffffffffffffffffff83167fffffffffffffffffffffffff0000000000000000000000000000000000000000909116811790915561188760005473ffffffffffffffffffffffffffffffffffffffff1690565b73ffffffffffffffffffffffffffffffffffffffff167f38d16b8cac22d99fc7c124b9cd0de2d3fa1faef420bfe791d8c362d765e2270060405160405180910390a350565b60006118d782612399565b611945577f35f8d4297cedff70ac1e00ca57f340dc39eb0234be11eeeb57a0ff94015b734660208301803560011c906119109085612c0c565b6040805192835273ffffffffffffffffffffffffffffffffffffffff90911660208301520160405180910390a1506000919050565b602082013560011c600061195882611d83565b9050806003015442106119ad5760405162461bcd60e51b815260206004820152600b60248201527f766f746520636c6f7365640000000000000000000000000000000000000000006044820152606401610b94565b6004810154610100900460ff1615611a075760405162461bcd60e51b815260206004820152600e60248201527f726f6f6d2066696e616c697a65640000000000000000000000000000000000006044820152606401610b94565b8060020154846060013510611a5e5760405162461bcd60e51b815260206004820152601660248201527f696e76616c696420766f74652074696d657374616d70000000000000000000006044820152606401610b94565b806001015484606001351015611ab65760405162461bcd60e51b815260206004820152601660248201527f696e76616c696420766f74652074696d657374616d70000000000000000000006044820152606401610b94565b6000828152600d6020908152604082209190611ad490870187612c0c565b73ffffffffffffffffffffffffffffffffffffffff16815260208101919091526040016000205460ff1615611b69577f04f9da634a3ce855cf7785808a673a41608288999dcd1d08e55bb33c69118f4a82611b326020870187612c0c565b6040805192835273ffffffffffffffffffffffffffffffffffffffff90911660208301520160405180910390a15060009392505050565b6000828152600d6020908152604082206001929091611b8a90880188612c0c565b73ffffffffffffffffffffffffffffffffffffffff1681526020808201929092526040908101600090812080547fffffffffffffffffffffffffffffffffffffffffffffffffffffffffffffff001694151594909417909355848352600c82529182902082516060810190935291908190611c0790880188612c0c565b73ffffffffffffffffffffffffffffffffffffffff1681526020018660200135600116600114611c38576000611c3b565b60015b6001811115611c4c57611c4c6129e6565b815260408701356020918201528254600181810185556000948552938290208351600290920201805473ffffffffffffffffffffffffffffffffffffffff9092167fffffffffffffffffffffffff000000000000000000000000000000000000000083168117825592840151939490939284927fffffffffffffffffffffff00000000000000000000000000000000000000000016179074010000000000000000000000000000000000000000908490811115611d0b57611d0b6129e6565b0217905550604091909101516001909101557ff1003b73c437642c0460aee9cd9628b0b8c447b66e6c7c905531b9c644214a1182611d4c6020870187612c0c565b6040805192835273ffffffffffffffffffffffffffffffffffffffff90911660208301520160405180910390a15060019392505050565b6000816001811015611dc4576040517ff244389200000000000000000000000000000000000000000000000000000000815260048101829052602401610b94565b600754811115611e03576040517fdd085d4b00000000000000000000000000000000000000000000000000000000815260048101829052602401610b94565b6007611e106001856131f0565b81548110611e2057611e20612ed3565b90600052602060002090600b0201915050919050565b600a82015460088301546000908152600c60205260408120549091611e639163ffffffff909116906131f0565b8263ffffffff161115611ede5760405162461bcd60e51b815260206004820152602260248201527f6c696d69742069732067726561746572207468616e20766f746573206c656e6760448201527f74680000000000000000000000000000000000000000000000000000000000006064820152608401610b94565b60048301544390610100900460ff1615611ef9575060098301545b60005b8363ffffffff168163ffffffff1610156120e55760088501546000908152600c60205260408120600a870154611f3990849063ffffffff16612f4c565b63ffffffff1681548110611f4f57611f4f612ed3565b60009182526020909120600290910201600181015460035482546040517f4ee2cd7e00000000000000000000000000000000000000000000000000000000815273ffffffffffffffffffffffffffffffffffffffff9182166004820152602481018890529394509192911690634ee2cd7e90604401602060405180830381865afa158015611fe1573d6000803e3d6000fd5b505050506040513d601f19601f820116820180604052508101906120059190613203565b1061207b576001815474010000000000000000000000000000000000000000900460ff16600181111561203a5761203a6129e6565b0361205d5780600101548660060154612053919061321c565b60068701556120d2565b80600101548660070154612071919061321c565b60078701556120d2565b600886015481546040805192835273ffffffffffffffffffffffffffffffffffffffff90911660208301527f52de8a8b06ee845dd9537ef3906e0a37d48c140e75f780715ee892f0ee08c052910160405180910390a15b50806120dd81613393565b915050611efc565b600a8501805482919060009061210290849063ffffffff16612f4c565b82546101009290920a63ffffffff81810219909316918316021790915560088701546000908152600c6020526040902054600a88015490911603905061217457600a850180547fffffffffffffffffffffffffffffffffffffffffffffffffffffff00ffffffff166401000000001790555b5050505060078101546006909101541190565b60005473ffffffffffffffffffffffffffffffffffffffff1633146109f55760405162461bcd60e51b815260206004820181905260248201527f4f776e61626c653a2063616c6c6572206973206e6f7420746865206f776e65726044820152606401610b94565b600180547fffffffffffffffffffffffff0000000000000000000000000000000000000000169055610ba68161244e565b6001600482015460ff16600181111561223a5761223a6129e6565b036122cd576002546040517f7483793500000000000000000000000000000000000000000000000000000000815273ffffffffffffffffffffffffffffffffffffffff909116906374837935906122989060058501906004016133ac565b600060405180830381600087803b1580156122b257600080fd5b505af11580156122c6573d6000803e3d6000fd5b5050505050565b6002546040517f3c01b93c00000000000000000000000000000000000000000000000000000000815273ffffffffffffffffffffffffffffffffffffffff90911690633c01b93c906122989060058501906004016133ac565b610ba68160405160240161233c91815260200190565b60408051601f198184030181529190526020810180517bffffffffffffffffffffffffffffffffffffffffffffffffffffffff167ff5b1bba9000000000000000000000000000000000000000000000000000000001790526124c3565b600080600e546123a8846124e4565b6040517f190100000000000000000000000000000000000000000000000000000000000060208201526022810192909252604282015260620160408051601f198184030181529190528051602091820120915061240790840184612c0c565b73ffffffffffffffffffffffffffffffffffffffff1661243082608086013560a087013561257e565b73ffffffffffffffffffffffffffffffffffffffff16149392505050565b6000805473ffffffffffffffffffffffffffffffffffffffff8381167fffffffffffffffffffffffff0000000000000000000000000000000000000000831681178455604051919092169283917f8be0079c531659141344cd1fd0a4f28419497f9722a3daafe3b4186f6b6457e09190a35050565b80516a636f6e736f6c652e6c6f67602083016000808483855afa5050505050565b60007fc8dfdde54cc98cd88a1a27e5243a7be688ac8c14d9008cb1cb766705910604476020830180359060408501359061251e9086612c0c565b60408051602081019590955284019290925260608381019190915273ffffffffffffffffffffffffffffffffffffffff909116608083015283013560a082015260c001604051602081830303815290604052805190602001209050919050565b600080600061258e8686866125a4565b9150915061259b816125f6565b50949350505050565b6000807f7fffffffffffffffffffffffffffffffffffffffffffffffffffffffffffffff8316816125da60ff86901c601b61321c565b90506125e88782888561275b565b935093505050935093915050565b600081600481111561260a5761260a6129e6565b036126125750565b6001816004811115612626576126266129e6565b036126735760405162461bcd60e51b815260206004820152601860248201527f45434453413a20696e76616c6964207369676e617475726500000000000000006044820152606401610b94565b6002816004811115612687576126876129e6565b036126d45760405162461bcd60e51b815260206004820152601f60248201527f45434453413a20696e76616c6964207369676e6174757265206c656e677468006044820152606401610b94565b60038160048111156126e8576126e86129e6565b03610ba65760405162461bcd60e51b815260206004820152602260248201527f45434453413a20696e76616c6964207369676e6174757265202773272076616c60448201527f75650000000000000000000000000000000000000000000000000000000000006064820152608401610b94565b6000807f7fffffffffffffffffffffffffffffff5d576e7357a4501ddfe92f46681b20a08311156127925750600090506003612823565b6040805160008082526020820180845289905260ff881692820192909252606081018690526080810185905260019060a0016020604051602081039080840390855afa1580156127e6573d6000803e3d6000fd5b5050604051601f19015191505073ffffffffffffffffffffffffffffffffffffffff811661281c57600060019250925050612823565b9150600090505b94509492505050565b5080546000825590600052602060002090810190610ba691906128cd565b604051806101a001604052806000815260200160008152602001600081526020016000815260200160006001811115612885576128856129e6565b81526020016000151581526020016060815260200160008152602001600081526020016000815260200160008152602001600063ffffffff1681526020016000151581525090565b5b808211156128e257600081556001016128ce565b5090565b600080602083850312156128f957600080fd5b823567ffffffffffffffff8082111561291157600080fd5b818501915085601f83011261292557600080fd5b81358181111561293457600080fd5b86602060c08302850101111561294957600080fd5b60209290920196919550909350505050565b60008083601f84011261296d57600080fd5b50813567ffffffffffffffff81111561298557600080fd5b60208301915083602082850101111561299d57600080fd5b9250929050565b600080602083850312156129b757600080fd5b823567ffffffffffffffff8111156129ce57600080fd5b6129da8582860161295b565b90969095509350505050565b7f4e487b7100000000000000000000000000000000000000000000000000000000600052602160045260246000fd5b60028110612a4c577f4e487b7100000000000000000000000000000000000000000000000000000000600052602160045260246000fd5b9052565b6000815180845260005b81811015612a7657602081850181015186830182015201612a5a565b506000602082860101526020601f19601f83011685010191505092915050565b60006101a0825184526020830151602085015260408301516040850152606083015160608501526080830151612acf6080860182612a15565b5060a0830151612ae360a086018215159052565b5060c08301518160c0860152612afb82860182612a50565b60e085810151908701526101008086015190870152610120808601519087015261014080860151908701526101608086015163ffffffff16908701526101809485015115159490950193909352509192915050565b602081526000612b636020830184612a96565b9392505050565b6000602080830181845280855180835260408601915060408160051b870101925083870160005b82811015612bdd577fffffffffffffffffffffffffffffffffffffffffffffffffffffffffffffffc0888603018452612bcb858351612a96565b94509285019290850190600101612b91565b5092979650505050505050565b73ffffffffffffffffffffffffffffffffffffffff81168114610ba657600080fd5b600060208284031215612c1e57600080fd5b8135612b6381612bea565b600060208284031215612c3b57600080fd5b5035919050565b60006101a08f83528e60208401528d60408401528c6060840152612c69608084018d612a15565b8a151560a08401528060c0840152612c838184018b612a50565b60e0840199909952505061010081019590955261012085019390935261014084019190915263ffffffff16610160830152151561018090910152979650505050505050565b60008060408385031215612cdb57600080fd5b82359150602083013563ffffffff81168114612cf657600080fd5b809150509250929050565b6020808252825182820181905260009190848201906040850190845b81811015612d3957835183529284019291840191600101612d1d565b50909695505050505050565b60008060008060608587031215612d5b57600080fd5b843560028110612d6a57600080fd5b9350602085013567ffffffffffffffff811115612d8657600080fd5b612d928782880161295b565b9598909750949560400135949350505050565b6020808252825182820181905260009190848201906040850190845b81811015612d3957835173ffffffffffffffffffffffffffffffffffffffff1683529284019291840191600101612dc1565b7f4e487b7100000000000000000000000000000000000000000000000000000000600052604160045260246000fd5b600060208284031215612e3457600080fd5b813567ffffffffffffffff80821115612e4c57600080fd5b818401915084601f830112612e6057600080fd5b813581811115612e7257612e72612df3565b604051601f8201601f19908116603f01168101908382118183101715612e9a57612e9a612df3565b81604052828152876020848701011115612eb357600080fd5b826020860160208301376000928101602001929092525095945050505050565b7f4e487b7100000000000000000000000000000000000000000000000000000000600052603260045260246000fd5b7f4e487b7100000000000000000000000000000000000000000000000000000000600052601160045260246000fd5b61ffff81811683821601908082111561098d5761098d612f02565b63ffffffff81811683821601908082111561098d5761098d612f02565b60007fffffffffffffffffffffffffffffffffffffffffffffffffffffffffffffffff8203612f9a57612f9a612f02565b5060010190565b600061ffff808316818103612fb857612fb8612f02565b6001019392505050565b8183823760009101908152919050565b600181811c90821680612fe657607f821691505b602082108103611816577f4e487b7100000000000000000000000000000000000000000000000000000000600052602260045260246000fd5b600080835461302d81612fd2565b600182811680156130455760018114613078576130a7565b7fffffffffffffffffffffffffffffffffffffffffffffffffffffffffffffff00841687528215158302870194506130a7565b8760005260208060002060005b8581101561309e5781548a820152908401908201613085565b50505082870194505b50929695505050505050565b600081546130c081612fd2565b8085526020600183811680156130dd576001811461311557613143565b7fffffffffffffffffffffffffffffffffffffffffffffffffffffffffffffff008516838901528284151560051b8901019550613143565b866000528260002060005b8581101561313b5781548a8201860152908301908401613120565b890184019650505b505050505092915050565b84815260806020820152600061316760808301866130b3565b9050831515604083015261317e6060830184612a15565b95945050505050565b818352818160208501375060006020828401015260006020601f19601f840116840101905092915050565b6020815260006131c6602083018486613187565b949350505050565b6000602082840312156131e057600080fd5b81518015158114612b6357600080fd5b8181038181111561071357610713612f02565b60006020828403121561321557600080fd5b5051919050565b8082018082111561071357610713612f02565b601f82111561058057600081815260208120601f850160051c810160208610156132565750805b601f850160051c820191505b8181101561327557828155600101613262565b505050505050565b815167ffffffffffffffff81111561329757613297612df3565b6132ab816132a58454612fd2565b8461322f565b602080601f8311600181146132fe57600084156132c85750858301515b7fffffffffffffffffffffffffffffffffffffffffffffffffffffffffffffffff600386901b1c1916600185901b178555613275565b600085815260208120601f198616915b8281101561332d5788860151825594840194600190910190840161330e565b508582101561336957878501517fffffffffffffffffffffffffffffffffffffffffffffffffffffffffffffffff600388901b60f8161c191681555b5050505050600190811b01905550565b83815260406020820152600061317e604083018486613187565b600063ffffffff808316818103612fb857612fb8612f02565b602081526000612b6360208301846130b356",
    "linkReferences": {}
  },
  "methodIdentifiers": {
    "VOTE_TYPEHASH()": "86522973",
    "acceptOwnership()": "79ba5097",
    "activeRoomIDByCommunityID(bytes)": "f6a54ac6",
    "castVotes((address,uint256,uint256,uint256,bytes32,bytes32)[])": "2111efc7",
    "directory()": "c41c2f24",
    "finalizeVotingRoom(uint256,uint32)": "a68f1449",
    "getActiveVotingRoom(bytes)": "54b6ec37",
    "getActiveVotingRooms()": "c1cde92c",
    "getVotingHistory(bytes)": "5dacd0a0",
    "initializeVotingRoom(uint8,bytes,uint256)": "da6d4a3d",
    "listRoomVoters(uint256)": "daf1612b",
    "owner()": "8da5cb5b",
    "pendingOwner()": "e30c3978",
    "renounceOwnership()": "715018a6",
    "setDirectory(address)": "6e91818a",
    "timeBetweenVoting()": "7ed1689c",
    "token()": "fc0c546a",
    "transferOwnership(address)": "f2fde38b",
    "votingLength()": "0a64522f",
    "votingRooms(uint256)": "730d0108",
    "votingVerificationLength()": "ff9bd048"
  },
  "id": 3
}